:100000002C060020750B0000ED0B0000F50B000026
:10001000FD0B0000FD0B0000FD0B000000000000C8
:10002000000000000000000000000000FD0B0000C8
:10003000FD0B000000000000FD0B0000FD0B0000A8
:10004000FD0B0000FD0B0000FD0B0000FD0B000090
:10005000FD0B0000FD0B0000FD0B0000FD0B000080
:10006000FD0B0000FD0B0000FD0B0000FD0B000070
:10007000FD0B0000FD0B0000FD0B0000FD0B000060
:10008000FD0B0000FD0B0000FD0B0000FD0B000050
:10009000FD0B0000FD0B0000FD0B0000FD0B000040
:1000A000FD0B0000FD0B0000FD0B0000FD0B000030
:1000B000FD0B0000FD0B0000FD0B0000FD0B000020
:1000C000FD0B0000FD0B0000FD0B0000FD0B000010
:1000D000FD0B0000FD0B0000FD0B0000FD0B000000
:1000E000FD0B00000000000000000000FD0B000000
:1000F000FD0B0000FD0B0000FD0B0000FD0B0000E0
:10010000FD0B0000FD0B0000FD0B0000FD0B0000CF
:100110000000000000000000FD0B0000FD0B0000CF
:10012000FD0B0000FD0B0000FD0B0000FD0B0000AF
:10013000FD0B0000FD0B0000FD0B0000FD0B00009F
:1001400000000000000000000000000000000000AF
:10015000FD0B0000FD0B0000FD0B0000FD0B00007F
:10016000000000000000000000000000000000008F
:10017000000000000000000000000000000000007F
:10018000000000000000000000000000000000006F
:10019000000000000000000000000000000000005F
:1001A000000000000000000000000000000000004F
:1001B000FD0B0000FD0B0000FD0B0000FD0B00001F
:1001C000FD0B0000FD0B0000FD0B0000FD0B00000F
:1001D000FD0B0000FD0B0000FD0B0000FD0B0000FF
:1001E000FD0B0000FD0B0000FD0B000000000000F7
:1001F00000000000FD0B0000FD0B0000FD0B0000E7
:10020000FD0B0000FD0B00000000000000000000DE
:10021000FD0B0000FD0B0000FD0B0000FD0B0000BE
:10022000FD0B0000FD0B0000FD0B0000FD0B0000AE
:10023000FD0B0000FD0B0000FD0B0000FD0B00009E
:10024000FD0B0000FD0B0000FD0B0000FD0B00008E
:10025000FD0B0000FD0B0000FD0B0000FD0B00007E
:10026000FD0B0000FD0B0000FD0B000080B582B00F
:1002700000AF0346FB7145F2FC33C4F2000345F2C4
:10028000FC32C4F20002126842F001021A6002203D
:1002900000F0F6FC47F2FC33C4F2000397F90720A4
:1002A00002F0F00212111A6045F2FC33C4F20003AE
:1002B00045F2FC32C4F20002126842F002021A60F7
:1002C00045F2FC33C4F2000345F2FC32C4F20002F2
:1002D000126822F002021A6047F2FC33C4F20003F3
:1002E000FA7902F00F021A6045F2FC33C4F20003FF
:1002F00045F2FC32C4F20002126842F002021A60B7
:1003000045F2FC33C4F2000345F2FC32C4F20002B1
:10031000126822F002021A600837BD4680BD00BF95
:1003200080B582B000AF0346FB7145F2FC33C4F2E6
:10033000000345F2FC32C4F20002126822F001020E
:100340001A60022000F09CFC47F2FC33C4F2000368
:10035000FA791209D2B21A6045F2FC33C4F20003F2
:1003600045F2FC32C4F20002126842F002021A6046
:1003700045F2FC33C4F2000345F2FC32C4F2000241
:10038000126822F002021A6047F2FC33C4F2000342
:10039000FA7902F00F021A6045F2FC33C4F200034E
:1003A00045F2FC32C4F20002126842F002021A6006
:1003B00045F2FC33C4F2000345F2FC32C4F2000201
:1003C000126822F002021A600837BD4680BD00BFE5
:1003D00080B500AF0120FFF7A3FF0A2000F050FC1A
:1003E00080BD00BF80B582B000AF786007E07B6859
:1003F0005A1C7A601B785BB21846FFF737FF7B68A0
:100400001B78002BF3D10837BD4680BD80B582B084
:1004100000AF02460B46FA71BB7197F90730012B0A
:100420000FD197F906305A1ED3171B0F1A4402F04A
:100430000F02D31ADBB2803BDBB21846FFF770FF26
:100440000EE097F906305A1ED3171B0F1A4402F01C
:100450000F02D31ADBB2403BDBB21846FFF760FF56
:100460000837BD4680BD00BF80B500AF4EF208130F
:10047000C4F20F034EF20812C4F20F02126842F0E7
:1004800002021A604FF4A843C4F200034FF4A842DA
:10049000C4F20002126842F003021A6045F22043DF
:1004A000C4F2000345F22042C4F20002126822F0B6
:1004B00003021A6045F21C53C4F2000345F21C52B9
:1004C000C4F20002126842F003021A6045F22C5393
:1004D000C4F200036FF0FF021A6045F22853C4F221
:1004E000000345F22852C4F20002126802F003022F
:1004F0001A604EF20813C4F20F034EF20812C4F24F
:100500000F02126842F008021A604FF4E843C4F286
:1005100000034FF4E842C4F20002126842F00F02F6
:100520001A6047F22043C4F2000347F22042C4F2AB
:100530000002126822F00F021A6047F21C53C4F244
:10054000000347F21C52C4F20002126842F00F028C
:100550001A6047F22C53C4F2000347F22C52C4F243
:1005600000021268120C12041A6047F22853C4F2F7
:10057000000347F22852C4F20002126822F00F0270
:100580001A6045F2FC33C4F2000345F2FC32C4F2B7
:100590000002126822F001021A6045F2FC33C4F234
:1005A000000345F2FC32C4F20002126822F002029B
:1005B0001A602820FFF7B4FE0C20FFF7B1FE0620DA
:1005C000FFF7AEFE8020FFF7ABFE2820FFF7A8FE66
:1005D000FFF7FEFE80BD00BF80B483B000AF4EF2D7
:1005E0000813C4F20F034EF20812C4F20F0212688D
:1005F00042F010021A604EF20863C4F20F031B6847
:100600007B6044F22053C4F2020344F24B32C4F63E
:100610004F421A6044F22453C4F202033F221A608C
:1006200044F22853C4F2020300221A6044F22C530D
:10063000C4F2020300221A604FF48843C4F202039A
:100640000F221A6044F22043C4F2020300221A600F
:1006500044F21053C4F2020330221A6044F21C53D5
:10066000C4F202033F221A600C37BD465DF8047BDA
:10067000704700BF80B586B000AFFFF7ADFF00F058
:1006800091F900F0BFFA0320012100F01FFA00F0F9
:1006900047FA024640F22C63C2F200031A60FFF7E9
:1006A000E3FE7B69BB6000F001FB0246D3179B0FA2
:1006B0001A4402F00302D31A7B61BA687B699A423A
:1006C00000F06F817B69002B39D144F2FC33C4F216
:1006D000020344F2FC32C4F20202126842F0010248
:1006E0001A6044F2FC33C4F2020344F2FC32C4F256
:1006F0000202126802F001021A6001200121FFF7D4
:1007000085FE40F6F440C0F20000FFF76BFE0023C8
:100710007B6002E07B6801337B607A6844F63E339D
:10072000C0F24C039A42F5D902200121FFF76EFE78
:1007300040F60050C0F20000FFF754FE21E17B6953
:10074000012B39D144F2FC33C4F2020344F2FC32EF
:10075000C4F20202126842F002021A6044F2FC3350
:10076000C4F2020344F2FC32C4F20202126802F044
:1007700002021A6002200121FFF748FE40F60050F5
:10078000C0F20000FFF72EFE00237B6002E07B68D2
:1007900001337B607A6844F63E33C0F24C039A42E0
:1007A000F5D901200121FFF731FE40F6F440C0F2F7
:1007B0000000FFF717FEE4E07B69022B6FD144F2E3
:1007C000FC33C4F2020344F2FC32C4F202021268A7
:1007D00042F004021A6044F2FC33C4F2020344F211
:1007E000FC32C4F20202126802F004021A60012311
:1007F0003B611EE03B69DBB25BB201201946FFF7AB
:1008000005FE40F6F440C0F20000FFF7EBFD0023C8
:100810007B6002E07B6801337B607A6844F23F23AF
:10082000C0F20F039A42F5D9FFF7D2FD3B690133BD
:100830003B613B69102BDDDD00237B6002E07B68C0
:1008400001337B607A6844F63E33C0F24C039A422F
:10085000F5D901233B611EE03B69DBB25BB20220AC
:100860001946FFF7D3FD40F60050C0F20000FFF735
:10087000B9FD00237B6002E07B6801337B607A680E
:1008800044F23F23C0F20F039A42F5D9FFF7A0FDCF
:100890003B6901333B613B69102BDDDD71E07B6916
:1008A000032B6ED144F2FC33C4F2020344F2FC3257
:1008B000C4F20202126842F008021A6044F2FC33E9
:1008C000C4F2020344F2FC32C4F20202126802F0E3
:1008D00008021A601023FB601EE0FB68DBB25BB20B
:1008E00001201946FFF792FD40F6F440C0F20000E7
:1008F000FFF778FD00237B6002E07B6801337B60BB
:100900007A6844F23F23C0F20F039A42F5D9FFF709
:100910005FFDFB68013BFB60FB68002BDDDC002317
:100920007B6002E07B6801337B607A6844F63E338B
:10093000C0F24C039A42F5D91023FB601EE0FB681D
:10094000DBB25BB202201946FFF760FD40F60050B3
:10095000C0F20000FFF746FD00237B6002E07B68E9
:1009600001337B607A6844F23F23C0F20F039A425E
:10097000F5D9FFF72DFDFB68013BFB60FB68002B01
:10098000DDDC00237B6002E07B6801337B607A68FA
:100990004DF6FF43C0F26D039A42F5D9FFF718FDFB
:1009A0007FE67EE680B500AF4EF27003C4F20F031F
:1009B0004EF27002C4F20F02126842F000421A6056
:1009C0004EF27003C4F20F034EF27002C4F20F0233
:1009D000126842F400621A604EF26003C4F20F0320
:1009E0004EF26002C4F20F02126822F4F8621A603A
:1009F0004EF26003C4F20F034EF26002C4F20F0223
:100A0000126842F4A8621A604EF27003C4F20F0337
:100A10004EF27002C4F20F02126822F070021A60E5
:100A20004EF27003C4F20F034EF27002C4F20F02D2
:100A300012681A604EF27003C4F20F034EF2700295
:100A4000C4F20F02126822F400521A604EF27003D0
:100A5000C4F20F034EF27002C4F20F02126842F0A9
:100A600080421A604EF27003C4F20F034EF270021D
:100A7000C4F20F02126822F0FC521A604EF27003A8
:100A8000C4F20F034EF27002C4F20F02126822F495
:100A900080021A600320012100F018F800BF4EF216
:100AA0005003C4F20F031B6803F04003002BF6D081
:100AB0004EF27003C4F20F034EF27002C4F20F0242
:100AC000126822F400621A6080BD00BF80B483B057
:100AD00000AF02460B46FA71BB714EF27003C4F2CE
:100AE0000F034EF27002C4F20F02126822F0FE529F
:100AF0001A604EF27003C4F20F034EF27002C4F299
:100B00000F02116897F90720D00597F90620920582
:100B100002430A431A600C37BD465DF8047B7047F8
:100B200080B483B000AF4EF27003C4F20F031B68B1
:100B300003F0FC53DB0DFB714EF27003C4F20F03A4
:100B40001B6803F480039B0DBB7197F907305B00B2
:100B50005A1C97F9063013441A464FF40443C1F265
:100B6000D773B3FBF2F318460C37BD465DF8047B30
:100B7000704700BF80B582B000AF40F61453C0F29A
:100B800000037B6040F20003C2F200033B6007E019
:100B90003B681A1D3A607A68111D796012681A6004
:100BA0003A6840F22C43C2F200039A42F0D30D4857
:100BB0000D494FF000028842B8BF40F8042BFADB21
:100BC0004EF68853CEF200034EF68852CEF2000263
:100BD000126842F470021A60FFF74CFD0837BD46F8
:100BE00080BD00002C0400203006002080B400AF3F
:100BF000FEE700BF80B400AFFEE700BF80B400AFE7
:100C0000FEE700BF80B400AF4EF21003CEF2000347
:100C100000221A604EF21403CEF200036FF07F42FE
:100C20001A604EF21803CEF2000300221A604EF250
:100C30001003CEF2000305221A60BD465DF8047B66
:100C4000704700BF80B485B000AF78604EF21803E3
:100C5000CEF200031B68FB604EF21803CEF20003D5
:100C60001B68FA68D31A23F07F43BB60BA687B68BD
:100C70009A42F1D91437BD465DF8047B704700BF36
:100C800080B584B000AF78600023FB6006E04CF2D2
:100C90005030FFF7D7FFFB680133FB60FA687B68D1
:100CA0009A42F4D31037BD4680BD00BF10B440F265
:100CB0002843C2F200034FF22D401968D1F8A82052
:100CC000D1F8AC40C5F6510047F62D7300FB02F099
:100CD000C4F6954303FB0404A2FB0323234401321F
:100CE00043F10003C1E92A2323F000405DF8044BDF
:100CF000704700BF4B6F6361656C6920556E69007A
:100D00004F67757A68616E20457274656E000000E9
:040D1000430000009C
:100D140000000000EC02002054030020BC0300206B
:100D240000000000000000000000000000000000BF
:100D340000000000000000000000000000000000AF
:100D440000000000100D0000000000000000000082
:100D5400000000000000000000000000000000008F
:100D6400000000000000000000000000000000007F
:100D7400000000000000000000000000000000006F
:100D8400000000000000000000000000000000005F
:100D9400000000000000000000000000000000004F
:100DA400000000000000000000000000000000003F
:100DB400000000000000000001000000000000002E
:100DC4000E33CDAB34126DE6ECDE05000B000000F3
:100DD400000000000000000000000000000000000F
:100DE40000000000000000000000000000000000FF
:100DF40000000000000000000000000000000000EF
:100E040000000000000000000000000000000000DE
:0C1134000000000000000000000000208F
:00000001FF
